{
  "address": "0x112de51b708c77C628532120Ffe2c0200f067399",
  "abi": [
    {
      "anonymous": false,
      "inputs": [
        {
          "indexed": true,
          "internalType": "address",
          "name": "account",
          "type": "address"
        },
        {
          "indexed": true,
          "internalType": "address",
          "name": "erc20",
          "type": "address"
        },
        {
          "indexed": false,
          "internalType": "uint256",
          "name": "amount",
          "type": "uint256"
        }
      ],
      "name": "MerkleClaim",
      "type": "event"
    },
    {
      "anonymous": false,
      "inputs": [
        {
          "indexed": true,
          "internalType": "address",
          "name": "funder",
          "type": "address"
        },
        {
          "indexed": true,
          "internalType": "bytes32",
          "name": "merkleRoot",
          "type": "bytes32"
        },
        {
          "indexed": false,
          "internalType": "uint256",
          "name": "claimGroupId",
          "type": "uint256"
        },
        {
          "indexed": false,
          "internalType": "uint256",
          "name": "amount",
          "type": "uint256"
        },
        {
          "indexed": false,
          "internalType": "bool",
          "name": "withdraw",
          "type": "bool"
        }
      ],
      "name": "MerkleFundUpdate",
      "type": "event"
    },
    {
      "anonymous": false,
      "inputs": [
        {
          "indexed": true,
          "internalType": "address",
          "name": "sender",
          "type": "address"
        },
        {
          "indexed": true,
          "internalType": "address",
          "name": "erc20",
          "type": "address"
        },
        {
          "indexed": false,
          "internalType": "uint256",
          "name": "amount",
          "type": "uint256"
        },
        {
          "indexed": true,
          "internalType": "bytes32",
          "name": "merkleRoot",
          "type": "bytes32"
        },
        {
          "indexed": false,
          "internalType": "uint256",
          "name": "claimGroupId",
          "type": "uint256"
        },
        {
          "indexed": false,
          "internalType": "uint256",
          "name": "withdrawUnlockTime",
          "type": "uint256"
        },
        {
          "indexed": false,
          "internalType": "string",
          "name": "memo",
          "type": "string"
        }
      ],
      "name": "NewMerkle",
      "type": "event"
    },
    {
      "inputs": [],
      "name": "LOCKING_PERIOD",
      "outputs": [
        {
          "internalType": "uint256",
          "name": "",
          "type": "uint256"
        }
      ],
      "stateMutability": "view",
      "type": "function"
    },
    {
      "inputs": [
        {
          "internalType": "uint256",
          "name": "claimGroupId",
          "type": "uint256"
        },
        {
          "internalType": "uint256",
          "name": "amount",
          "type": "uint256"
        }
      ],
      "name": "addFunds",
      "outputs": [],
      "stateMutability": "nonpayable",
      "type": "function"
    },
    {
      "inputs": [
        {
          "internalType": "uint256",
          "name": "claimGroupId",
          "type": "uint256"
        },
        {
          "internalType": "address",
          "name": "funder",
          "type": "address"
        },
        {
          "internalType": "uint256",
          "name": "amount",
          "type": "uint256"
        },
        {
          "internalType": "uint256",
          "name": "deadline",
          "type": "uint256"
        },
        {
          "internalType": "uint8",
          "name": "v",
          "type": "uint8"
        },
        {
          "internalType": "bytes32",
          "name": "r",
          "type": "bytes32"
        },
        {
          "internalType": "bytes32",
          "name": "s",
          "type": "bytes32"
        }
      ],
      "name": "addFundsWithPermit",
      "outputs": [],
      "stateMutability": "nonpayable",
      "type": "function"
    },
    {
      "inputs": [
        {
          "internalType": "uint256",
          "name": "claimGroupId",
          "type": "uint256"
        },
        {
          "internalType": "address",
          "name": "account",
          "type": "address"
        },
        {
          "internalType": "uint256",
          "name": "amount",
          "type": "uint256"
        },
        {
          "internalType": "bytes32[]",
          "name": "proof",
          "type": "bytes32[]"
        }
      ],
      "name": "claim",
      "outputs": [],
      "stateMutability": "nonpayable",
      "type": "function"
    },
    {
      "inputs": [],
      "name": "claimGroupCount",
      "outputs": [
        {
          "internalType": "uint256",
          "name": "",
          "type": "uint256"
        }
      ],
      "stateMutability": "view",
      "type": "function"
    },
    {
      "inputs": [
        {
          "internalType": "address",
          "name": "",
          "type": "address"
        },
        {
          "internalType": "uint256",
          "name": "",
          "type": "uint256"
        }
      ],
      "name": "claimGroupIds",
      "outputs": [
        {
          "internalType": "uint256",
          "name": "",
          "type": "uint256"
        }
      ],
      "stateMutability": "view",
      "type": "function"
    },
    {
      "inputs": [
        {
          "internalType": "address",
          "name": "owner",
          "type": "address"
        }
      ],
      "name": "getClaimGroupIds",
      "outputs": [
        {
          "internalType": "uint256[]",
          "name": "ids",
          "type": "uint256[]"
        }
      ],
      "stateMutability": "view",
      "type": "function"
    },
    {
      "inputs": [
        {
          "internalType": "uint256",
          "name": "",
          "type": "uint256"
        }
      ],
      "name": "holdings",
      "outputs": [
        {
          "internalType": "address",
          "name": "owner",
          "type": "address"
        },
        {
          "internalType": "address",
          "name": "erc20",
          "type": "address"
        },
        {
          "internalType": "uint256",
          "name": "balance",
          "type": "uint256"
        },
        {
          "internalType": "bytes32",
          "name": "merkleRoot",
          "type": "bytes32"
        },
        {
          "internalType": "uint256",
          "name": "withdrawUnlockTime",
          "type": "uint256"
        },
        {
          "internalType": "string",
          "name": "memo",
          "type": "string"
        }
      ],
      "stateMutability": "view",
      "type": "function"
    },
    {
      "inputs": [
        {
          "internalType": "uint256",
          "name": "claimGroupId",
          "type": "uint256"
        },
        {
          "internalType": "address",
          "name": "account",
          "type": "address"
        },
        {
          "internalType": "uint256",
          "name": "amount",
          "type": "uint256"
        },
        {
          "internalType": "bytes32[]",
          "name": "proof",
          "type": "bytes32[]"
        }
      ],
      "name": "isClaimable",
      "outputs": [
        {
          "internalType": "bool",
          "name": "",
          "type": "bool"
        }
      ],
      "stateMutability": "view",
      "type": "function"
    },
    {
      "inputs": [
        {
          "internalType": "uint256",
          "name": "",
          "type": "uint256"
        },
        {
          "internalType": "bytes32",
          "name": "",
          "type": "bytes32"
        }
      ],
      "name": "leafClaimed",
      "outputs": [
        {
          "internalType": "bool",
          "name": "",
          "type": "bool"
        }
      ],
      "stateMutability": "view",
      "type": "function"
    },
    {
      "inputs": [
        {
          "internalType": "address",
          "name": "erc20",
          "type": "address"
        },
        {
          "internalType": "uint256",
          "name": "amount",
          "type": "uint256"
        },
        {
          "internalType": "bytes32",
          "name": "merkleRoot",
          "type": "bytes32"
        },
        {
          "internalType": "uint256",
          "name": "withdrawUnlockTime",
          "type": "uint256"
        },
        {
          "internalType": "string",
          "name": "memo",
          "type": "string"
        }
      ],
      "name": "newClaimsGroup",
      "outputs": [
        {
          "internalType": "uint256",
          "name": "",
          "type": "uint256"
        }
      ],
      "stateMutability": "nonpayable",
      "type": "function"
    },
    {
      "inputs": [
        {
          "internalType": "uint256",
          "name": "claimGroupId",
          "type": "uint256"
        },
        {
          "internalType": "uint256",
          "name": "amount",
          "type": "uint256"
        }
      ],
      "name": "withdrawFunds",
      "outputs": [],
      "stateMutability": "nonpayable",
      "type": "function"
    }
  ],
  "transactionHash": "0x2904c3e62f0bd10f6d307782ec07b5c4a37df383c03652683ab2be337b2efdba",
  "args": [],
  "numDeployments": 1,
  "solcInputHash": "086e3306c4160125eeb50d561f1fca1c",
  "bytecode": "0x608060405234801561001057600080fd5b50611c85806100206000396000f3fe608060405234801561001057600080fd5b50600436106100d45760003560e01c806398bad26911610081578063b2a2b7221161005b578063b2a2b722146101be578063e5253105146101c8578063f3549e36146101db57600080fd5b806398bad2691461017d578063aedefb8014610190578063af5033091461019957600080fd5b80637b2c343f116100b25780637b2c343f1461012757806385f452501461014757806391a47af51461015a57600080fd5b80632e7ba6ef146100d95780634cfb19ed146100ee5780636292fabf14610114575b600080fd5b6100ec6100e7366004611691565b610209565b005b6101016100fc366004611773565b6104cb565b6040519081526020015b60405180910390f35b61010161012236600461179d565b6104fc565b61013a61013536600461183c565b610864565b60405161010b9190611857565b6100ec61015536600461189b565b6108d0565b61016d610168366004611691565b610b16565b604051901515815260200161010b565b6100ec61018b3660046118bd565b610ced565b61010160035481565b6101ac6101a7366004611929565b610fe3565b60405161010b9695949392919061199a565b61010162278d0081565b6100ec6101d636600461189b565b6110b0565b61016d6101e936600461189b565b600260209081526000928352604080842090915290825290205460ff1681565b600084815260208190526040902080546001600160a01b03166102735760405162461bcd60e51b815260206004820152601160248201527f486f6c64696e67206e6f7420666f756e6400000000000000000000000000000060448201526064015b60405180910390fd5b80546001600160a01b038086169116036102cf5760405162461bcd60e51b815260206004820152601a60248201527f486f6c64696e67206f776e65722063616e6e6f7420636c61696d000000000000604482015260640161026a565b82816002015410156103235760405162461bcd60e51b815260206004820152601d60248201527f436c61696d20756e6465722d66756e6465642062792066756e6465722e000000604482015260640161026a565b604080516bffffffffffffffffffffffff19606087901b16602080830191909152603480830187905283518084039091018152605490920183528151918101919091206000888152600283528381208282529092529190205460ff16156103cc5760405162461bcd60e51b815260206004820152600f60248201527f416c726561647920636c61696d65640000000000000000000000000000000000604482015260640161026a565b6103db838360030154836112a1565b151560011461042c5760405162461bcd60e51b815260206004820152600f60248201527f436c61696d206e6f7420666f756e640000000000000000000000000000000000604482015260640161026a565b6000868152600260208181526040808420858552909152909120805460ff1916600117905582015461045e90856112b7565b6002830155600182015461047c906001600160a01b031686866112ca565b60018201546040518581526001600160a01b03918216918716907f3af05bdbca3cea126ac0af71ad1715d8860bec57e252bfccaab4c205455e9cc19060200160405180910390a3505050505050565b600160205281600052604060002081815481106104e757600080fd5b90600052602060002001600091509150505481565b60006001600160a01b0387166105545760405162461bcd60e51b815260206004820152601560248201527f496e76616c696420455243323020616464726573730000000000000000000000604482015260640161026a565b60008590036105a55760405162461bcd60e51b815260206004820152601560248201527f4d65726b6c652063616e6e6f74206265207a65726f0000000000000000000000604482015260640161026a565b6105b262278d00426119fa565b8410156106275760405162461bcd60e51b815260206004820152602c60248201527f486f6c64696e67206c6f636b206d75737420657863656564206d696e696d756d60448201527f206c6f636b20706572696f640000000000000000000000000000000000000000606482015260840161026a565b6003805490600061063783611a12565b909155505060035460009081526020819052604080822090516370a0823160e01b8152336004820152909189916001600160a01b038316906370a0823190602401602060405180830381865afa158015610695573d6000803e3d6000fd5b505050506040513d601f19601f820116820180604052508101906106b99190611a2b565b905060001989036106c8578098505b8089111561070f5760405162461bcd60e51b8152602060048201526014602482015273496e73756666696369656e742062616c616e636560601b604482015260640161026a565b8860000361075f5760405162461bcd60e51b815260206004820152601560248201527f416d6f756e742063616e6e6f74206265207a65726f0000000000000000000000604482015260640161026a565b6107746001600160a01b03831633308c611378565b8254337fffffffffffffffffffffffff00000000000000000000000000000000000000009182161784556001840180549091166001600160a01b038c16179055600283018990556003830188905560048301879055600583016107d8868883611acc565b5033600081815260016020818152604080842060038054825495860183559186529290942090920192909255905490518a926001600160a01b038e169290917f6a554f29f3801ca960697648a687dbfc68e5d6cab77bc0ce97100de90abf573f9161084b918f91908e908e908e90611b8d565b60405180910390a4505060035498975050505050505050565b6001600160a01b0381166000908152600160209081526040918290208054835181840281018401909452808452606093928301828280156108c457602002820191906000526020600020905b8154815260200190600101908083116108b0575b50505050509050919050565b806000036109205760405162461bcd60e51b815260206004820152600e60248201527f496e76616c696420616d6f756e74000000000000000000000000000000000000604482015260640161026a565b600082815260208190526040902080546001600160a01b03166109855760405162461bcd60e51b815260206004820152601660248201527f486f6c64696e6720646f6573206e6f7420657869737400000000000000000000604482015260640161026a565b60018101546040516370a0823160e01b81523360048201526001600160a01b039091169060009082906370a0823190602401602060405180830381865afa1580156109d4573d6000803e3d6000fd5b505050506040513d601f19601f820116820180604052508101906109f89190611a2b565b90506000198403610a07578093505b80841115610a4e5760405162461bcd60e51b8152602060048201526014602482015273496e73756666696369656e742062616c616e636560601b604482015260640161026a565b83600003610a9e5760405162461bcd60e51b815260206004820152601560248201527f416d6f756e742063616e6e6f74206265207a65726f0000000000000000000000604482015260640161026a565b610ab36001600160a01b038316333087611378565b6002830154610ac290856113cf565b600284015560038301546040805187815260208101879052600081830152905133917f210aece5a2bb3ac8bbec4d3bd83444123ef037a899b89d617e735799f983e6b3919081900360600190a35050505050565b600084815260208181526040808320815160c08101835281546001600160a01b0390811682526001830154169381019390935260028101549183019190915260038101546060830152600481015460808301526005810180548493929160a0840191610b8190611a44565b80601f0160208091040260200160405190810160405280929190818152602001828054610bad90611a44565b8015610bfa5780601f10610bcf57610100808354040283529160200191610bfa565b820191906000526020600020905b815481529060010190602001808311610bdd57829003601f168201915b5050509190925250508151919250506001600160a01b0316610c20576000915050610ce5565b80516001600160a01b03808716911603610c3e576000915050610ce5565b8381604001511015610c54576000915050610ce5565b604080516bffffffffffffffffffffffff19606088901b16602080830191909152603480830188905283518084039091018152605490920183528151918101919091206000898152600283528381208282529092529190205460ff1615610cc057600092505050610ce5565b610ccf848360600151836112a1565b610cde57600092505050610ce5565b6001925050505b949350505050565b84600003610d3d5760405162461bcd60e51b815260206004820152600e60248201527f496e76616c696420616d6f756e74000000000000000000000000000000000000604482015260640161026a565b600087815260208190526040902080546001600160a01b0316610da25760405162461bcd60e51b815260206004820152601660248201527f486f6c64696e6720646f6573206e6f7420657869737400000000000000000000604482015260640161026a565b60018101546040516370a0823160e01b81526001600160a01b0389811660048301529091169060009082906370a0823190602401602060405180830381865afa158015610df3573d6000803e3d6000fd5b505050506040513d601f19601f82011682018060405250810190610e179190611a2b565b90506000198803610e26578097505b80881115610e6d5760405162461bcd60e51b8152602060048201526014602482015273496e73756666696369656e742062616c616e636560601b604482015260640161026a565b87600003610ebd5760405162461bcd60e51b815260206004820152601560248201527f416d6f756e742063616e6e6f74206265207a65726f0000000000000000000000604482015260640161026a565b6040517fd505accf0000000000000000000000000000000000000000000000000000000081526001600160a01b038a81166004830152306024830152604482018a90526064820189905260ff8816608483015260a4820187905260c4820186905283169063d505accf9060e401600060405180830381600087803b158015610f4457600080fd5b505af1158015610f58573d6000803e3d6000fd5b50610f72925050506001600160a01b0383168a308b611378565b6002830154610f8190896113cf565b60028401556003830154604080518c8152602081018b905260008183015290516001600160a01b038c16917f210aece5a2bb3ac8bbec4d3bd83444123ef037a899b89d617e735799f983e6b3919081900360600190a350505050505050505050565b6000602081905290815260409020805460018201546002830154600384015460048501546005860180546001600160a01b0396871697969095169593949293919261102d90611a44565b80601f016020809104026020016040519081016040528092919081815260200182805461105990611a44565b80156110a65780601f1061107b576101008083540402835291602001916110a6565b820191906000526020600020905b81548152906001019060200180831161108957829003601f168201915b5050505050905086565b600082815260208190526040902080546001600160a01b03166111155760405162461bcd60e51b815260206004820152601660248201527f486f6c64696e6720646f6573206e6f7420657869737400000000000000000000604482015260640161026a565b80600401544210156111695760405162461bcd60e51b815260206004820152601d60248201527f486f6c64696e6773206d6179206e6f742062652077697468647261776e000000604482015260640161026a565b80546001600160a01b031633146111c25760405162461bcd60e51b815260206004820152601760248201527f4f6e6c79206f776e6572206d6179207769746864726177000000000000000000604482015260640161026a565b6001808201546001600160a01b03169083016111e057816002015492505b816002015483111561122b5760405162461bcd60e51b8152602060048201526014602482015273496e73756666696369656e742062616c616e636560601b604482015260640161026a565b600282015461123a90846112b7565b60028301556112536001600160a01b03821633856112ca565b60038201546040805186815260208101869052600181830152905133917f210aece5a2bb3ac8bbec4d3bd83444123ef037a899b89d617e735799f983e6b3919081900360600190a350505050565b6000826112ae85846113db565b14949350505050565b60006112c38284611bd1565b9392505050565b6040516001600160a01b0383166024820152604481018290526113739084907fa9059cbb00000000000000000000000000000000000000000000000000000000906064015b60408051601f198184030181529190526020810180517bffffffffffffffffffffffffffffffffffffffffffffffffffffffff167fffffffff0000000000000000000000000000000000000000000000000000000090931692909217909152611428565b505050565b6040516001600160a01b03808516602483015283166044820152606481018290526113c99085907f23b872dd000000000000000000000000000000000000000000000000000000009060840161130f565b50505050565b60006112c382846119fa565b600081815b84518110156114205761140c828683815181106113ff576113ff611be8565b602002602001015161150d565b91508061141881611a12565b9150506113e0565b509392505050565b600061147d826040518060400160405280602081526020017f5361666545524332303a206c6f772d6c6576656c2063616c6c206661696c6564815250856001600160a01b031661153c9092919063ffffffff16565b805190915015611373578080602001905181019061149b9190611bfe565b6113735760405162461bcd60e51b815260206004820152602a60248201527f5361666545524332303a204552433230206f7065726174696f6e20646964206e60448201527f6f74207375636365656400000000000000000000000000000000000000000000606482015260840161026a565b60008183106115295760008281526020849052604090206112c3565b60008381526020839052604090206112c3565b6060610ce5848460008585600080866001600160a01b031685876040516115639190611c20565b60006040518083038185875af1925050503d80600081146115a0576040519150601f19603f3d011682016040523d82523d6000602084013e6115a5565b606091505b50915091506115b6878383876115c1565b979650505050505050565b60608315611630578251600003611629576001600160a01b0385163b6116295760405162461bcd60e51b815260206004820152601d60248201527f416464726573733a2063616c6c20746f206e6f6e2d636f6e7472616374000000604482015260640161026a565b5081610ce5565b610ce583838151156116455781518083602001fd5b8060405162461bcd60e51b815260040161026a9190611c3c565b80356001600160a01b038116811461167657600080fd5b919050565b634e487b7160e01b600052604160045260246000fd5b600080600080608085870312156116a757600080fd5b8435935060206116b881870161165f565b935060408601359250606086013567ffffffffffffffff808211156116dc57600080fd5b818801915088601f8301126116f057600080fd5b8135818111156117025761170261167b565b8060051b604051601f19603f830116810181811085821117156117275761172761167b565b60405291825284820192508381018501918b83111561174557600080fd5b938501935b828510156117635784358452938501939285019261174a565b989b979a50959850505050505050565b6000806040838503121561178657600080fd5b61178f8361165f565b946020939093013593505050565b60008060008060008060a087890312156117b657600080fd5b6117bf8761165f565b9550602087013594506040870135935060608701359250608087013567ffffffffffffffff808211156117f157600080fd5b818901915089601f83011261180557600080fd5b81358181111561181457600080fd5b8a602082850101111561182657600080fd5b6020830194508093505050509295509295509295565b60006020828403121561184e57600080fd5b6112c38261165f565b6020808252825182820181905260009190848201906040850190845b8181101561188f57835183529284019291840191600101611873565b50909695505050505050565b600080604083850312156118ae57600080fd5b50508035926020909101359150565b600080600080600080600060e0888a0312156118d857600080fd5b873596506118e86020890161165f565b95506040880135945060608801359350608088013560ff8116811461190c57600080fd5b9699959850939692959460a0840135945060c09093013592915050565b60006020828403121561193b57600080fd5b5035919050565b60005b8381101561195d578181015183820152602001611945565b838111156113c95750506000910152565b60008151808452611986816020860160208601611942565b601f01601f19169290920160200192915050565b60006001600160a01b03808916835280881660208401525085604083015284606083015283608083015260c060a08301526119d860c083018461196e565b98975050505050505050565b634e487b7160e01b600052601160045260246000fd5b60008219821115611a0d57611a0d6119e4565b500190565b600060018201611a2457611a246119e4565b5060010190565b600060208284031215611a3d57600080fd5b5051919050565b600181811c90821680611a5857607f821691505b602082108103611a7857634e487b7160e01b600052602260045260246000fd5b50919050565b601f82111561137357600081815260208120601f850160051c81016020861015611aa55750805b601f850160051c820191505b81811015611ac457828155600101611ab1565b505050505050565b67ffffffffffffffff831115611ae457611ae461167b565b611af883611af28354611a44565b83611a7e565b6000601f841160018114611b2c5760008515611b145750838201355b600019600387901b1c1916600186901b178355611b86565b600083815260209020601f19861690835b82811015611b5d5786850135825560209485019460019092019101611b3d565b5086821015611b7a5760001960f88860031b161c19848701351681555b505060018560011b0183555b5050505050565b85815284602082015283604082015260806060820152816080820152818360a0830137600081830160a090810191909152601f909201601f19160101949350505050565b600082821015611be357611be36119e4565b500390565b634e487b7160e01b600052603260045260246000fd5b600060208284031215611c1057600080fd5b815180151581146112c357600080fd5b60008251611c32818460208701611942565b9190910192915050565b6020815260006112c3602083018461196e56fea264697066735822122028884705d74d4f0ca33ccf43c6f72ef9f40637e199aaebc7e8c9e0d810cb80f364736f6c634300080f0033",
  "devdoc": {
    "kind": "dev",
    "methods": {},
    "version": 1
  },
  "userdoc": {
    "kind": "user",
    "methods": {},
    "version": 1
  },
  "storageLayout": {
    "storage": [
      {
        "astId": 2216,
        "contract": "contracts/MerkleBox.sol:MerkleBox",
        "label": "holdings",
        "offset": 0,
        "slot": "0",
        "type": "t_mapping(t_uint256,t_struct(Holding)2211_storage)"
      },
      {
        "astId": 2221,
        "contract": "contracts/MerkleBox.sol:MerkleBox",
        "label": "claimGroupIds",
        "offset": 0,
        "slot": "1",
        "type": "t_mapping(t_address,t_array(t_uint256)dyn_storage)"
      },
      {
        "astId": 2227,
        "contract": "contracts/MerkleBox.sol:MerkleBox",
        "label": "leafClaimed",
        "offset": 0,
        "slot": "2",
        "type": "t_mapping(t_uint256,t_mapping(t_bytes32,t_bool))"
      },
      {
        "astId": 2232,
        "contract": "contracts/MerkleBox.sol:MerkleBox",
        "label": "claimGroupCount",
        "offset": 0,
        "slot": "3",
        "type": "t_uint256"
      }
    ],
    "types": {
      "t_address": {
        "encoding": "inplace",
        "label": "address",
        "numberOfBytes": "20"
      },
      "t_array(t_uint256)dyn_storage": {
        "base": "t_uint256",
        "encoding": "dynamic_array",
        "label": "uint256[]",
        "numberOfBytes": "32"
      },
      "t_bool": {
        "encoding": "inplace",
        "label": "bool",
        "numberOfBytes": "1"
      },
      "t_bytes32": {
        "encoding": "inplace",
        "label": "bytes32",
        "numberOfBytes": "32"
      },
      "t_mapping(t_address,t_array(t_uint256)dyn_storage)": {
        "encoding": "mapping",
        "key": "t_address",
        "label": "mapping(address => uint256[])",
        "numberOfBytes": "32",
        "value": "t_array(t_uint256)dyn_storage"
      },
      "t_mapping(t_bytes32,t_bool)": {
        "encoding": "mapping",
        "key": "t_bytes32",
        "label": "mapping(bytes32 => bool)",
        "numberOfBytes": "32",
        "value": "t_bool"
      },
      "t_mapping(t_uint256,t_mapping(t_bytes32,t_bool))": {
        "encoding": "mapping",
        "key": "t_uint256",
        "label": "mapping(uint256 => mapping(bytes32 => bool))",
        "numberOfBytes": "32",
        "value": "t_mapping(t_bytes32,t_bool)"
      },
      "t_mapping(t_uint256,t_struct(Holding)2211_storage)": {
        "encoding": "mapping",
        "key": "t_uint256",
        "label": "mapping(uint256 => struct MerkleBox.Holding)",
        "numberOfBytes": "32",
        "value": "t_struct(Holding)2211_storage"
      },
      "t_string_storage": {
        "encoding": "bytes",
        "label": "string",
        "numberOfBytes": "32"
      },
      "t_struct(Holding)2211_storage": {
        "encoding": "inplace",
        "label": "struct MerkleBox.Holding",
        "members": [
          {
            "astId": 2200,
            "contract": "contracts/MerkleBox.sol:MerkleBox",
            "label": "owner",
            "offset": 0,
            "slot": "0",
            "type": "t_address"
          },
          {
            "astId": 2202,
            "contract": "contracts/MerkleBox.sol:MerkleBox",
            "label": "erc20",
            "offset": 0,
            "slot": "1",
            "type": "t_address"
          },
          {
            "astId": 2204,
            "contract": "contracts/MerkleBox.sol:MerkleBox",
            "label": "balance",
            "offset": 0,
            "slot": "2",
            "type": "t_uint256"
          },
          {
            "astId": 2206,
            "contract": "contracts/MerkleBox.sol:MerkleBox",
            "label": "merkleRoot",
            "offset": 0,
            "slot": "3",
            "type": "t_bytes32"
          },
          {
            "astId": 2208,
            "contract": "contracts/MerkleBox.sol:MerkleBox",
            "label": "withdrawUnlockTime",
            "offset": 0,
            "slot": "4",
            "type": "t_uint256"
          },
          {
            "astId": 2210,
            "contract": "contracts/MerkleBox.sol:MerkleBox",
            "label": "memo",
            "offset": 0,
            "slot": "5",
            "type": "t_string_storage"
          }
        ],
        "numberOfBytes": "192"
      },
      "t_uint256": {
        "encoding": "inplace",
        "label": "uint256",
        "numberOfBytes": "32"
      }
    }
  }
}