{
  "address": "0x67006C2e8d2F28468f77a962cf26bCc792AfAC0f",
  "abi": [
    {
      "inputs": [
        {
          "internalType": "address",
          "name": "erc20",
          "type": "address"
        },
        {
          "internalType": "uint256[]",
          "name": "bits",
          "type": "uint256[]"
        }
      ],
      "name": "multiTransfer",
      "outputs": [
        {
          "internalType": "bool",
          "name": "",
          "type": "bool"
        }
      ],
      "stateMutability": "nonpayable",
      "type": "function"
    }
  ],
  "transactionHash": "0x64d693ebac756af5ea708c645e99a3baae146f2f18b92a875921fbbba13a1f89",
  "args": [],
  "numDeployments": 1,
  "solcInputHash": "086e3306c4160125eeb50d561f1fca1c",
  "bytecode": "0x608060405234801561001057600080fd5b50610617806100206000396000f3fe608060405234801561001057600080fd5b506004361061002b5760003560e01c8063fcfdccc614610030575b600080fd5b61004361003e36600461046c565b610057565b604051901515815260200160405180910390f35b60006001600160a01b0384166100b45760405162461bcd60e51b815260206004820152601560248201527f4552433230206164647265737320696e76616c6964000000000000000000000060448201526064015b60405180910390fd5b8360005b8381101561014157600060608686848181106100d6576100d6610500565b90506020020135901c905060008686848181106100f5576100f5610500565b905060200201356bffffffffffffffffffffffff16905061012c338383876001600160a01b031661014d909392919063ffffffff16565b5050808061013990610516565b9150506100b8565b50600195945050505050565b604080516001600160a01b0385811660248301528416604482015260648082018490528251808303909101815260849091019091526020810180517bffffffffffffffffffffffffffffffffffffffffffffffffffffffff167f23b872dd000000000000000000000000000000000000000000000000000000001790526101d59085906101db565b50505050565b6000610230826040518060400160405280602081526020017f5361666545524332303a206c6f772d6c6576656c2063616c6c206661696c6564815250856001600160a01b03166102c59092919063ffffffff16565b8051909150156102c0578080602001905181019061024e919061053d565b6102c05760405162461bcd60e51b815260206004820152602a60248201527f5361666545524332303a204552433230206f7065726174696f6e20646964206e60448201527f6f7420737563636565640000000000000000000000000000000000000000000060648201526084016100ab565b505050565b60606102d484846000856102dc565b949350505050565b6060824710156103545760405162461bcd60e51b815260206004820152602660248201527f416464726573733a20696e73756666696369656e742062616c616e636520666f60448201527f722063616c6c000000000000000000000000000000000000000000000000000060648201526084016100ab565b600080866001600160a01b031685876040516103709190610592565b60006040518083038185875af1925050503d80600081146103ad576040519150601f19603f3d011682016040523d82523d6000602084013e6103b2565b606091505b50915091506103c3878383876103ce565b979650505050505050565b6060831561043d578251600003610436576001600160a01b0385163b6104365760405162461bcd60e51b815260206004820152601d60248201527f416464726573733a2063616c6c20746f206e6f6e2d636f6e747261637400000060448201526064016100ab565b50816102d4565b6102d483838151156104525781518083602001fd5b8060405162461bcd60e51b81526004016100ab91906105ae565b60008060006040848603121561048157600080fd5b83356001600160a01b038116811461049857600080fd5b9250602084013567ffffffffffffffff808211156104b557600080fd5b818601915086601f8301126104c957600080fd5b8135818111156104d857600080fd5b8760208260051b85010111156104ed57600080fd5b6020830194508093505050509250925092565b634e487b7160e01b600052603260045260246000fd5b60006001820161053657634e487b7160e01b600052601160045260246000fd5b5060010190565b60006020828403121561054f57600080fd5b8151801515811461055f57600080fd5b9392505050565b60005b83811015610581578181015183820152602001610569565b838111156101d55750506000910152565b600082516105a4818460208701610566565b9190910192915050565b60208152600082518060208401526105cd816040850160208701610566565b601f01601f1916919091016040019291505056fea2646970667358221220742335eb7c3b32977a9c8b8e766b055c32e50a5a31e1899e7f22f9f9802bc03a64736f6c634300080f0033",
  "devdoc": {
    "kind": "dev",
    "methods": {
      "multiTransfer(address,uint256[])": {
        "details": "Left 160 bits are the recipient address and the right 96 bits are the token amount.",
        "params": {
          "bits": "array of uint"
        },
        "returns": {
          "_0": "true/false"
        }
      }
    },
    "version": 1
  },
  "userdoc": {
    "kind": "user",
    "methods": {
      "multiTransfer(address,uint256[])": {
        "notice": "Transfer the tokens from sender to all the address provided in the array."
      }
    },
    "version": 1
  },
  "storageLayout": {
    "storage": [],
    "types": null
  }
}